{
  "contractName": "Marketfair",
  "abi": [
    {
      "inputs": [],
      "stateMutability": "nonpayable",
      "type": "constructor"
    },
    {
      "anonymous": false,
      "inputs": [
        {
          "indexed": false,
          "internalType": "uint256",
          "name": "id",
          "type": "uint256"
        },
        {
          "indexed": false,
          "internalType": "string",
          "name": "name",
          "type": "string"
        },
        {
          "indexed": false,
          "internalType": "uint256",
          "name": "price",
          "type": "uint256"
        },
        {
          "indexed": false,
          "internalType": "address",
          "name": "owner",
          "type": "address"
        },
        {
          "indexed": false,
          "internalType": "bool",
          "name": "purchased",
          "type": "bool"
        }
      ],
      "name": "ProductCreated",
      "type": "event"
    },
    {
      "anonymous": false,
      "inputs": [
        {
          "indexed": false,
          "internalType": "uint256",
          "name": "id",
          "type": "uint256"
        },
        {
          "indexed": false,
          "internalType": "string",
          "name": "name",
          "type": "string"
        },
        {
          "indexed": false,
          "internalType": "uint256",
          "name": "price",
          "type": "uint256"
        },
        {
          "indexed": false,
          "internalType": "address payable",
          "name": "owner",
          "type": "address"
        },
        {
          "indexed": false,
          "internalType": "bool",
          "name": "purchased",
          "type": "bool"
        }
      ],
      "name": "ProductPurchased",
      "type": "event"
    },
    {
      "inputs": [],
      "name": "name",
      "outputs": [
        {
          "internalType": "string",
          "name": "",
          "type": "string"
        }
      ],
      "stateMutability": "view",
      "type": "function",
      "constant": true
    },
    {
      "inputs": [],
      "name": "productCount",
      "outputs": [
        {
          "internalType": "uint256",
          "name": "",
          "type": "uint256"
        }
      ],
      "stateMutability": "view",
      "type": "function",
      "constant": true
    },
    {
      "inputs": [
        {
          "internalType": "uint256",
          "name": "",
          "type": "uint256"
        }
      ],
      "name": "products",
      "outputs": [
        {
          "internalType": "uint256",
          "name": "id",
          "type": "uint256"
        },
        {
          "internalType": "string",
          "name": "name",
          "type": "string"
        },
        {
          "internalType": "uint256",
          "name": "price",
          "type": "uint256"
        },
        {
          "internalType": "address",
          "name": "owner",
          "type": "address"
        },
        {
          "internalType": "string",
          "name": "imageHash",
          "type": "string"
        },
        {
          "internalType": "bool",
          "name": "purchased",
          "type": "bool"
        }
      ],
      "stateMutability": "view",
      "type": "function",
      "constant": true
    },
    {
      "inputs": [
        {
          "internalType": "string",
          "name": "_hash",
          "type": "string"
        },
        {
          "internalType": "string",
          "name": "_ipfs",
          "type": "string"
        }
      ],
      "name": "uploadImage",
      "outputs": [],
      "stateMutability": "nonpayable",
      "type": "function"
    },
    {
      "inputs": [
        {
          "internalType": "string",
          "name": "_name",
          "type": "string"
        },
        {
          "internalType": "uint256",
          "name": "_price",
          "type": "uint256"
        },
        {
          "internalType": "string",
          "name": "_imageHash",
          "type": "string"
        }
      ],
      "name": "createProduct",
      "outputs": [],
      "stateMutability": "nonpayable",
      "type": "function"
    },
    {
      "inputs": [
        {
          "internalType": "uint256",
          "name": "_id",
          "type": "uint256"
        }
      ],
      "name": "purchaseProduct",
      "outputs": [],
      "stateMutability": "payable",
      "type": "function",
      "payable": true
    }
  ],
  "bytecode": "0x608060405260006001553480156200001657600080fd5b506040518060400160405280600f81526020017f44617070204d61726b657466616972000000000000000000000000000000000081525060009080519060200190620000649291906200006b565b5062000180565b82805462000079906200011b565b90600052602060002090601f0160209004810192826200009d5760008555620000e9565b82601f10620000b857805160ff1916838001178555620000e9565b82800160010185558215620000e9579182015b82811115620000e8578251825591602001919060010190620000cb565b5b509050620000f89190620000fc565b5090565b5b8082111562000117576000816000905550600101620000fd565b5090565b600060028204905060018216806200013457607f821691505b602082108114156200014b576200014a62000151565b5b50919050565b7f4e487b7100000000000000000000000000000000000000000000000000000000600052602260045260246000fd5b61106280620001906000396000f3fe6080604052600436106100555760003560e01c806306fdde031461005a57806338e76a03146100855780637acc0b20146100a1578063a91b8314146100e3578063e0f6ef871461010c578063ff38ec0f14610137575b600080fd5b34801561006657600080fd5b5061006f610160565b60405161007c9190610c5d565b60405180910390f35b61009f600480360381019061009a9190610bbf565b6101ee565b005b3480156100ad57600080fd5b506100c860048036038101906100c39190610bbf565b6105e9565b6040516100da96959493929190610d4e565b60405180910390f35b3480156100ef57600080fd5b5061010a60048036038101906101059190610ad4565b610762565b005b34801561011857600080fd5b5061012161081f565b60405161012e9190610c7f565b60405180910390f35b34801561014357600080fd5b5061015e60048036038101906101599190610b40565b610825565b005b6000805461016d90610ecb565b80601f016020809104026020016040519081016040528092919081815260200182805461019990610ecb565b80156101e65780601f106101bb576101008083540402835291602001916101e6565b820191906000526020600020905b8154815290600101906020018083116101c957829003601f168201915b505050505081565b6000600260008381526020019081526020016000206040518060c00160405290816000820154815260200160018201805461022890610ecb565b80601f016020809104026020016040519081016040528092919081815260200182805461025490610ecb565b80156102a15780601f10610276576101008083540402835291602001916102a1565b820191906000526020600020905b81548152906001019060200180831161028457829003601f168201915b50505050508152602001600282015481526020016003820160009054906101000a900473ffffffffffffffffffffffffffffffffffffffff1673ffffffffffffffffffffffffffffffffffffffff1673ffffffffffffffffffffffffffffffffffffffff16815260200160048201805461031a90610ecb565b80601f016020809104026020016040519081016040528092919081815260200182805461034690610ecb565b80156103935780601f1061036857610100808354040283529160200191610393565b820191906000526020600020905b81548152906001019060200180831161037657829003601f168201915b505050505081526020016005820160009054906101000a900460ff1615151515815250509050600081606001519050600082600001511180156103dc5750600154826000015111155b6103e557600080fd5b81604001513410156103f657600080fd5b8160a001511561040557600080fd5b3373ffffffffffffffffffffffffffffffffffffffff168173ffffffffffffffffffffffffffffffffffffffff16141561043e57600080fd5b8073ffffffffffffffffffffffffffffffffffffffff166108fc349081150290604051600060405180830381858888f19350505050158015610484573d6000803e3d6000fd5b5033826060019073ffffffffffffffffffffffffffffffffffffffff16908173ffffffffffffffffffffffffffffffffffffffff168152505060018260a001901515908115158152505081600260008581526020019081526020016000206000820151816000015560208201518160010190805190602001906105089291906109b4565b506040820151816002015560608201518160030160006101000a81548173ffffffffffffffffffffffffffffffffffffffff021916908373ffffffffffffffffffffffffffffffffffffffff16021790555060808201518160040190805190602001906105769291906109b4565b5060a08201518160050160006101000a81548160ff0219169083151502179055509050507f79558d0d7d4d900e2f15c4cc0a665f1acdbe415e44de900ecdd1e5bf12b56f4e600154836020015184604001513360016040516105dc959493929190610c9a565b60405180910390a1505050565b600260205280600052604060002060009150905080600001549080600101805461061290610ecb565b80601f016020809104026020016040519081016040528092919081815260200182805461063e90610ecb565b801561068b5780601f106106605761010080835404028352916020019161068b565b820191906000526020600020905b81548152906001019060200180831161066e57829003601f168201915b5050505050908060020154908060030160009054906101000a900473ffffffffffffffffffffffffffffffffffffffff16908060040180546106cc90610ecb565b80601f01602080910402602001604051908101604052809291908181526020018280546106f890610ecb565b80156107455780601f1061071a57610100808354040283529160200191610745565b820191906000526020600020905b81548152906001019060200180831161072857829003601f168201915b5050505050908060050160009054906101000a900460ff16905086565b600360003373ffffffffffffffffffffffffffffffffffffffff1673ffffffffffffffffffffffffffffffffffffffff168152602001908152602001600020604051806040016040528084815260200183815250908060018154018082558091505060019003906000526020600020906002020160009091909190915060008201518160000190805190602001906107fb9291906109b4565b5060208201518160010190805190602001906108189291906109b4565b5050505050565b60015481565b600083511161083357600080fd5b6000821161084057600080fd5b6001600081548092919061085390610f2e565b91905055506040518060c0016040528060015481526020018481526020018381526020013373ffffffffffffffffffffffffffffffffffffffff168152602001828152602001600015158152506002600060015481526020019081526020016000206000820151816000015560208201518160010190805190602001906108db9291906109b4565b506040820151816002015560608201518160030160006101000a81548173ffffffffffffffffffffffffffffffffffffffff021916908373ffffffffffffffffffffffffffffffffffffffff16021790555060808201518160040190805190602001906109499291906109b4565b5060a08201518160050160006101000a81548160ff0219169083151502179055509050507fbc59c0c8165864dcceb377dd07d8f431d4303f8e501cb0a0374a10cc68d7183660015484843360006040516109a7959493929190610cf4565b60405180910390a1505050565b8280546109c090610ecb565b90600052602060002090601f0160209004810192826109e25760008555610a29565b82601f106109fb57805160ff1916838001178555610a29565b82800160010185558215610a29579182015b82811115610a28578251825591602001919060010190610a0d565b5b509050610a369190610a3a565b5090565b5b80821115610a53576000816000905550600101610a3b565b5090565b6000610a6a610a6584610de2565b610dbd565b905082815260208101848484011115610a8257600080fd5b610a8d848285610e89565b509392505050565b600082601f830112610aa657600080fd5b8135610ab6848260208601610a57565b91505092915050565b600081359050610ace81611015565b92915050565b60008060408385031215610ae757600080fd5b600083013567ffffffffffffffff811115610b0157600080fd5b610b0d85828601610a95565b925050602083013567ffffffffffffffff811115610b2a57600080fd5b610b3685828601610a95565b9150509250929050565b600080600060608486031215610b5557600080fd5b600084013567ffffffffffffffff811115610b6f57600080fd5b610b7b86828701610a95565b9350506020610b8c86828701610abf565b925050604084013567ffffffffffffffff811115610ba957600080fd5b610bb586828701610a95565b9150509250925092565b600060208284031215610bd157600080fd5b6000610bdf84828501610abf565b91505092915050565b610bf181610e41565b82525050565b610c0081610e2f565b82525050565b610c0f81610e53565b82525050565b6000610c2082610e13565b610c2a8185610e1e565b9350610c3a818560208601610e98565b610c4381611004565b840191505092915050565b610c5781610e7f565b82525050565b60006020820190508181036000830152610c778184610c15565b905092915050565b6000602082019050610c946000830184610c4e565b92915050565b600060a082019050610caf6000830188610c4e565b8181036020830152610cc18187610c15565b9050610cd06040830186610c4e565b610cdd6060830185610be8565b610cea6080830184610c06565b9695505050505050565b600060a082019050610d096000830188610c4e565b8181036020830152610d1b8187610c15565b9050610d2a6040830186610c4e565b610d376060830185610bf7565b610d446080830184610c06565b9695505050505050565b600060c082019050610d636000830189610c4e565b8181036020830152610d758188610c15565b9050610d846040830187610c4e565b610d916060830186610bf7565b8181036080830152610da38185610c15565b9050610db260a0830184610c06565b979650505050505050565b6000610dc7610dd8565b9050610dd38282610efd565b919050565b6000604051905090565b600067ffffffffffffffff821115610dfd57610dfc610fd5565b5b610e0682611004565b9050602081019050919050565b600081519050919050565b600082825260208201905092915050565b6000610e3a82610e5f565b9050919050565b6000610e4c82610e5f565b9050919050565b60008115159050919050565b600073ffffffffffffffffffffffffffffffffffffffff82169050919050565b6000819050919050565b82818337600083830152505050565b60005b83811015610eb6578082015181840152602081019050610e9b565b83811115610ec5576000848401525b50505050565b60006002820490506001821680610ee357607f821691505b60208210811415610ef757610ef6610fa6565b5b50919050565b610f0682611004565b810181811067ffffffffffffffff82111715610f2557610f24610fd5565b5b80604052505050565b6000610f3982610e7f565b91507fffffffffffffffffffffffffffffffffffffffffffffffffffffffffffffffff821415610f6c57610f6b610f77565b5b600182019050919050565b7f4e487b7100000000000000000000000000000000000000000000000000000000600052601160045260246000fd5b7f4e487b7100000000000000000000000000000000000000000000000000000000600052602260045260246000fd5b7f4e487b7100000000000000000000000000000000000000000000000000000000600052604160045260246000fd5b6000601f19601f8301169050919050565b61101e81610e7f565b811461102957600080fd5b5056fea2646970667358221220b8633a9fbd22e3e3eeb514ceee91030bad87c058a9f1ceec5c5d144f1ffb120664736f6c63430008040033",
  "immutableReferences": {},
  "source": "// SPDX-License-Identifier: UNLICENSED\r\npragma solidity 0.8.4;\r\n\r\ncontract Marketfair {\r\n    string public name;\r\n    uint public productCount = 0;\r\n    mapping(uint => Product) public products;\r\n    mapping(address=>Image[]) private images;\r\n\r\n    struct Image{\r\n        string imageHash;\r\n        string ipfsInfo;\r\n    }\r\n\r\n    struct Product {\r\n        uint id;\r\n        string name;\r\n        uint price;\r\n        address owner;\r\n        string imageHash;\r\n        bool purchased;\r\n    }\r\n\r\n    event ProductCreated(\r\n        uint id,\r\n        string name,\r\n        uint price,\r\n        address owner,\r\n        bool purchased\r\n    );\r\n\r\n    event ProductPurchased(\r\n        uint id,\r\n        string name,\r\n        uint price,\r\n        address payable owner,\r\n        bool purchased\r\n    );\r\n\r\n    constructor() {\r\n        name = 'Dapp Marketfair';\r\n    }\r\n\r\n    function uploadImage(string memory _hash, string memory _ipfs) public{\r\n        images[msg.sender].push(Image(_hash, _ipfs)); //\r\n    }\r\n\r\n    function createProduct(string memory _name, uint _price, string memory _imageHash) public {\r\n        // require a valid name\r\n        require(bytes(_name).length > 0);\r\n        // require a valid price\r\n        require(_price > 0);\r\n        // increment product count\r\n        productCount++;\r\n        // create product\r\n        products[productCount] = Product(productCount, _name, _price, msg.sender, _imageHash, false);\r\n\r\n        // trigger an event\r\n        emit ProductCreated(productCount, _name, _price, msg.sender, false);\r\n    }\r\n\r\n    function purchaseProduct(uint _id) public payable {\r\n        // fetch the product\r\n        Product memory _product = products[_id];\r\n\r\n        // fetch the owner\r\n        address payable _seller = payable(_product.owner);\r\n\r\n        // check product id is valid\r\n        require(_product.id > 0 && _product.id <= productCount);\r\n\r\n        // check there is enough ether\r\n        require(msg.value >= _product.price);\r\n\r\n        // check the products is still available\r\n        require(!_product.purchased);\r\n\r\n        // check the buyer is not the seller\r\n        require(_seller != msg.sender);\r\n\r\n        // pay the seller\r\n        _seller.transfer(msg.value);\r\n\r\n        // transfer ownership to the buyer\r\n        _product.owner = msg.sender;\r\n\r\n        // mark as purchased\r\n        _product.purchased = true;\r\n\r\n        // update the product\r\n        products[_id] = _product;\r\n\r\n        // trigger an event\r\n        emit ProductPurchased(productCount, _product.name, _product.price, payable(msg.sender), true);\r\n    }\r\n}",
  "sourcePath": "F:/Playground/blockchain/marketplace-cra/contracts/Marketfair.sol",
  "compiler": {
    "name": "solc",
    "version": "0.8.4+commit.c7e474f2.Emscripten.clang"
  },
  "schemaVersion": "3.3.4",
  "updatedAt": "2021-04-23T01:30:14.330Z",
  "networkType": "ethereum",
  "devdoc": {
    "kind": "dev",
    "methods": {},
    "version": 1
  },
  "userdoc": {
    "kind": "user",
    "methods": {},
    "version": 1
  }
}